{
  "contractName": "FactureTracker",
  "abi": [
    {
      "inputs": [
        {
          "internalType": "uint256",
          "name": "",
          "type": "uint256"
        }
      ],
      "name": "factures",
      "outputs": [
        {
          "internalType": "string",
          "name": "client",
          "type": "string"
        },
        {
          "internalType": "string",
          "name": "dateEnvoi",
          "type": "string"
        },
        {
          "internalType": "string",
          "name": "statut",
          "type": "string"
        },
        {
          "internalType": "uint256",
          "name": "montant",
          "type": "uint256"
        },
        {
          "internalType": "uint256",
          "name": "tva",
          "type": "uint256"
        },
        {
          "internalType": "uint256",
          "name": "montantTva",
          "type": "uint256"
        }
      ],
      "stateMutability": "view",
      "type": "function",
      "constant": true
    },
    {
      "inputs": [],
      "name": "nextId",
      "outputs": [
        {
          "internalType": "uint256",
          "name": "",
          "type": "uint256"
        }
      ],
      "stateMutability": "view",
      "type": "function",
      "constant": true
    },
    {
      "inputs": [
        {
          "internalType": "string",
          "name": "client",
          "type": "string"
        },
        {
          "internalType": "string",
          "name": "dateEnvoi",
          "type": "string"
        },
        {
          "internalType": "string",
          "name": "statut",
          "type": "string"
        },
        {
          "internalType": "uint256",
          "name": "montant",
          "type": "uint256"
        },
        {
          "internalType": "uint256",
          "name": "tva",
          "type": "uint256"
        }
      ],
      "name": "ajouterFacture",
      "outputs": [],
      "stateMutability": "nonpayable",
      "type": "function"
    },
    {
      "inputs": [
        {
          "internalType": "uint256",
          "name": "id",
          "type": "uint256"
        }
      ],
      "name": "getFacture",
      "outputs": [
        {
          "internalType": "string",
          "name": "client",
          "type": "string"
        },
        {
          "internalType": "string",
          "name": "dateEnvoi",
          "type": "string"
        },
        {
          "internalType": "string",
          "name": "statut",
          "type": "string"
        },
        {
          "internalType": "uint256",
          "name": "montant",
          "type": "uint256"
        },
        {
          "internalType": "uint256",
          "name": "tva",
          "type": "uint256"
        },
        {
          "internalType": "uint256",
          "name": "montantTva",
          "type": "uint256"
        }
      ],
      "stateMutability": "view",
      "type": "function",
      "constant": true
    }
  ],
  "bytecode": "0x608060405234801561001057600080fd5b50610bc0806100206000396000f3fe608060405234801561001057600080fd5b506004361061004c5760003560e01c80632bdc3f9e1461005157806361b8ce8c1461006d578063a25c4f341461008b578063c3d10c20146100c0575b600080fd5b61006b60048036038101906100669190610716565b6100f5565b005b6100756101ea565b60405161008291906108bc565b60405180910390f35b6100a560048036038101906100a091906107d5565b6101f0565b6040516100b796959493929190610846565b60405180910390f35b6100da60048036038101906100d591906107d5565b610422565b6040516100ec96959493929190610846565b60405180910390f35b6000606482846101059190610985565b61010f9190610954565b90506040518060c00160405280878152602001868152602001858152602001848152602001838152602001828152506000806001548152602001908152602001600020600082015181600001908051906020019061016e9291906105f6565b50602082015181600101908051906020019061018b9291906105f6565b5060408201518160020190805190602001906101a89291906105f6565b50606082015181600301556080820151816004015560a08201518160050155905050600160008154809291906101dd90610a5d565b9190505550505050505050565b60015481565b60608060606000806000806000808981526020019081526020016000206040518060c001604052908160008201805461022890610a2b565b80601f016020809104026020016040519081016040528092919081815260200182805461025490610a2b565b80156102a15780601f10610276576101008083540402835291602001916102a1565b820191906000526020600020905b81548152906001019060200180831161028457829003601f168201915b505050505081526020016001820180546102ba90610a2b565b80601f01602080910402602001604051908101604052809291908181526020018280546102e690610a2b565b80156103335780601f1061030857610100808354040283529160200191610333565b820191906000526020600020905b81548152906001019060200180831161031657829003601f168201915b5050505050815260200160028201805461034c90610a2b565b80601f016020809104026020016040519081016040528092919081815260200182805461037890610a2b565b80156103c55780601f1061039a576101008083540402835291602001916103c5565b820191906000526020600020905b8154815290600101906020018083116103a857829003601f168201915b5050505050815260200160038201548152602001600482015481526020016005820154815250509050806000015181602001518260400151836060015184608001518560a001519650965096509650965096505091939550919395565b600060205280600052604060002060009150905080600001805461044590610a2b565b80601f016020809104026020016040519081016040528092919081815260200182805461047190610a2b565b80156104be5780601f10610493576101008083540402835291602001916104be565b820191906000526020600020905b8154815290600101906020018083116104a157829003601f168201915b5050505050908060010180546104d390610a2b565b80601f01602080910402602001604051908101604052809291908181526020018280546104ff90610a2b565b801561054c5780601f106105215761010080835404028352916020019161054c565b820191906000526020600020905b81548152906001019060200180831161052f57829003601f168201915b50505050509080600201805461056190610a2b565b80601f016020809104026020016040519081016040528092919081815260200182805461058d90610a2b565b80156105da5780601f106105af576101008083540402835291602001916105da565b820191906000526020600020905b8154815290600101906020018083116105bd57829003601f168201915b5050505050908060030154908060040154908060050154905086565b82805461060290610a2b565b90600052602060002090601f016020900481019282610624576000855561066b565b82601f1061063d57805160ff191683800117855561066b565b8280016001018555821561066b579182015b8281111561066a57825182559160200191906001019061064f565b5b509050610678919061067c565b5090565b5b8082111561069557600081600090555060010161067d565b5090565b60006106ac6106a784610908565b6108d7565b9050828152602081018484840111156106c457600080fd5b6106cf8482856109e9565b509392505050565b600082601f8301126106e857600080fd5b81356106f8848260208601610699565b91505092915050565b60008135905061071081610b73565b92915050565b600080600080600060a0868803121561072e57600080fd5b600086013567ffffffffffffffff81111561074857600080fd5b610754888289016106d7565b955050602086013567ffffffffffffffff81111561077157600080fd5b61077d888289016106d7565b945050604086013567ffffffffffffffff81111561079a57600080fd5b6107a6888289016106d7565b93505060606107b788828901610701565b92505060806107c888828901610701565b9150509295509295909350565b6000602082840312156107e757600080fd5b60006107f584828501610701565b91505092915050565b600061080982610938565b6108138185610943565b93506108238185602086016109f8565b61082c81610b62565b840191505092915050565b610840816109df565b82525050565b600060c082019050818103600083015261086081896107fe565b9050818103602083015261087481886107fe565b9050818103604083015261088881876107fe565b90506108976060830186610837565b6108a46080830185610837565b6108b160a0830184610837565b979650505050505050565b60006020820190506108d16000830184610837565b92915050565b6000604051905081810181811067ffffffffffffffff821117156108fe576108fd610b33565b5b8060405250919050565b600067ffffffffffffffff82111561092357610922610b33565b5b601f19601f8301169050602081019050919050565b600081519050919050565b600082825260208201905092915050565b600061095f826109df565b915061096a836109df565b92508261097a57610979610ad5565b5b828204905092915050565b6000610990826109df565b915061099b836109df565b9250817fffffffffffffffffffffffffffffffffffffffffffffffffffffffffffffffff04831182151516156109d4576109d3610aa6565b5b828202905092915050565b6000819050919050565b82818337600083830152505050565b60005b83811015610a165780820151818401526020810190506109fb565b83811115610a25576000848401525b50505050565b60006002820490506001821680610a4357607f821691505b60208210811415610a5757610a56610b04565b5b50919050565b6000610a68826109df565b91507fffffffffffffffffffffffffffffffffffffffffffffffffffffffffffffffff821415610a9b57610a9a610aa6565b5b600182019050919050565b7f4e487b7100000000000000000000000000000000000000000000000000000000600052601160045260246000fd5b7f4e487b7100000000000000000000000000000000000000000000000000000000600052601260045260246000fd5b7f4e487b7100000000000000000000000000000000000000000000000000000000600052602260045260246000fd5b7f4e487b7100000000000000000000000000000000000000000000000000000000600052604160045260246000fd5b6000601f19601f8301169050919050565b610b7c816109df565b8114610b8757600080fd5b5056fea2646970667358221220853c6e90c8ed045015cb902872a4dccd768322c5bb484cf9cc6c7df885bdd78764736f6c63430008000033",
  "immutableReferences": {},
  "source": "// SPDX-License-Identifier: MIT\r\npragma solidity ^0.8.0;\r\n\r\ncontract FactureTracker {\r\n    // Struct pour une facture\r\n    struct Facture {\r\n        string client;\r\n        string dateEnvoi;\r\n        string statut;\r\n        uint256 montant;\r\n        uint256 tva;\r\n        uint256 montantTva;\r\n    }\r\n\r\n    // Mapping pour lier un identifiant de facture  une facture\r\n    mapping(uint256 => Facture) public factures;\r\n\r\n    // Variable pour garder la trace de l'ID de la prochaine facture\r\n    uint256 public nextId;\r\n\r\n    // Fonction pour ajouter une facture\r\n    function ajouterFacture(\r\n        string memory client,\r\n        string memory dateEnvoi,\r\n        string memory statut,\r\n        uint256 montant,\r\n        uint256 tva\r\n    ) public {\r\n        uint256 montantTva = (montant * tva) / 100; // Calcul du montant de la TVA\r\n        factures[nextId] = Facture(client, dateEnvoi, statut, montant, tva, montantTva);\r\n        nextId++; // Incrmenter l'ID pour la prochaine facture\r\n    }\r\n\r\n    // Fonction pour obtenir une facture par ID\r\n    function getFacture(uint256 id) public view returns (\r\n        string memory client,\r\n        string memory dateEnvoi,\r\n        string memory statut,\r\n        uint256 montant,\r\n        uint256 tva,\r\n        uint256 montantTva\r\n    ) {\r\n        Facture memory f = factures[id];\r\n        return (f.client, f.dateEnvoi, f.statut, f.montant, f.tva, f.montantTva);\r\n    }\r\n}\r\n",
  "sourcePath": "D:\\mastere\\ISG\\ApplicationDeFacturation-master\\ApplicationDeFacturation\\simple_storage_facture\\contracts\\Facturee.sol",
  "compiler": {
    "name": "solc",
    "version": "0.8.0+commit.c7dfd78e.Emscripten.clang"
  },
  "schemaVersion": "3.4.16",
  "updatedAt": "2025-04-18T09:23:22.906Z",
  "networkType": "ethereum",
  "devdoc": {
    "kind": "dev",
    "methods": {},
    "version": 1
  },
  "userdoc": {
    "kind": "user",
    "methods": {},
    "version": 1
  }
}