{
  "contractName": "HealthPrediction",
  "abi": [
    {
      "anonymous": false,
      "inputs": [
        {
          "indexed": true,
          "internalType": "uint256",
          "name": "id",
          "type": "uint256"
        },
        {
          "indexed": false,
          "internalType": "string",
          "name": "userId",
          "type": "string"
        },
        {
          "indexed": false,
          "internalType": "string",
          "name": "disease",
          "type": "string"
        },
        {
          "indexed": false,
          "internalType": "string",
          "name": "userInputs",
          "type": "string"
        },
        {
          "indexed": false,
          "internalType": "string",
          "name": "predictionResult",
          "type": "string"
        },
        {
          "indexed": false,
          "internalType": "uint256",
          "name": "probability",
          "type": "uint256"
        }
      ],
      "name": "PredictionStored",
      "type": "event"
    },
    {
      "inputs": [],
      "name": "predictionCount",
      "outputs": [
        {
          "internalType": "uint256",
          "name": "",
          "type": "uint256"
        }
      ],
      "stateMutability": "view",
      "type": "function"
    },
    {
      "inputs": [
        {
          "internalType": "uint256",
          "name": "",
          "type": "uint256"
        }
      ],
      "name": "predictions",
      "outputs": [
        {
          "internalType": "uint256",
          "name": "id",
          "type": "uint256"
        },
        {
          "internalType": "string",
          "name": "userId",
          "type": "string"
        },
        {
          "internalType": "string",
          "name": "disease",
          "type": "string"
        },
        {
          "internalType": "string",
          "name": "userInputs",
          "type": "string"
        },
        {
          "internalType": "string",
          "name": "predictionResult",
          "type": "string"
        },
        {
          "internalType": "uint256",
          "name": "probability",
          "type": "uint256"
        }
      ],
      "stateMutability": "view",
      "type": "function"
    },
    {
      "inputs": [
        {
          "internalType": "string",
          "name": "_userId",
          "type": "string"
        },
        {
          "internalType": "string",
          "name": "_disease",
          "type": "string"
        },
        {
          "internalType": "string",
          "name": "_userInputs",
          "type": "string"
        },
        {
          "internalType": "string",
          "name": "_predictionResult",
          "type": "string"
        },
        {
          "internalType": "uint256",
          "name": "_probability",
          "type": "uint256"
        }
      ],
      "name": "storePrediction",
      "outputs": [],
      "stateMutability": "nonpayable",
      "type": "function"
    },
    {
      "inputs": [
        {
          "internalType": "uint256",
          "name": "_id",
          "type": "uint256"
        }
      ],
      "name": "getPrediction",
      "outputs": [
        {
          "components": [
            {
              "internalType": "uint256",
              "name": "id",
              "type": "uint256"
            },
            {
              "internalType": "string",
              "name": "userId",
              "type": "string"
            },
            {
              "internalType": "string",
              "name": "disease",
              "type": "string"
            },
            {
              "internalType": "string",
              "name": "userInputs",
              "type": "string"
            },
            {
              "internalType": "string",
              "name": "predictionResult",
              "type": "string"
            },
            {
              "internalType": "uint256",
              "name": "probability",
              "type": "uint256"
            }
          ],
          "internalType": "struct HealthPrediction.Prediction",
          "name": "",
          "type": "tuple"
        }
      ],
      "stateMutability": "view",
      "type": "function"
    }
  ],
  "bytecode": "0x608060405234801561001057600080fd5b50610ea6806100206000396000f3fe608060405234801561001057600080fd5b506004361061004b5760003560e01c80624fbbb01461005057806373d66388146100855780638e0596a2146100a1578063fe83bece146100bf575b600080fd5b61006a60048036038101906100659190610986565b6100ef565b60405161007c96959493929190610be9565b60405180910390f35b61009f600480360381019061009a91906108af565b61034b565b005b6100a961047a565b6040516100b69190610bce565b60405180910390f35b6100d960048036038101906100d49190610986565b610480565b6040516100e69190610bac565b60405180910390f35b600060205280600052604060002060009150905080600001549080600101805461011890610d40565b80601f016020809104026020016040519081016040528092919081815260200182805461014490610d40565b80156101915780601f1061016657610100808354040283529160200191610191565b820191906000526020600020905b81548152906001019060200180831161017457829003601f168201915b5050505050908060020180546101a690610d40565b80601f01602080910402602001604051908101604052809291908181526020018280546101d290610d40565b801561021f5780601f106101f45761010080835404028352916020019161021f565b820191906000526020600020905b81548152906001019060200180831161020257829003601f168201915b50505050509080600301805461023490610d40565b80601f016020809104026020016040519081016040528092919081815260200182805461026090610d40565b80156102ad5780601f10610282576101008083540402835291602001916102ad565b820191906000526020600020905b81548152906001019060200180831161029057829003601f168201915b5050505050908060040180546102c290610d40565b80601f01602080910402602001604051908101604052809291908181526020018280546102ee90610d40565b801561033b5780601f106103105761010080835404028352916020019161033b565b820191906000526020600020905b81548152906001019060200180831161031e57829003601f168201915b5050505050908060050154905086565b6001600081548092919061035e90610d72565b91905055506040518060c0016040528060015481526020018681526020018581526020018481526020018381526020018281525060008060015481526020019081526020016000206000820151816000015560208201518160010190805190602001906103cc929190610759565b5060408201518160020190805190602001906103e9929190610759565b506060820151816003019080519060200190610406929190610759565b506080820151816004019080519060200190610423929190610759565b5060a082015181600501559050506001547f2081aa3bc846172e403fc8364bad3b722862d6efafe889537cae267dac26da64868686868660405161046b959493929190610b1d565b60405180910390a25050505050565b60015481565b6104886107df565b60008211801561049a57506001548211155b6104d9576040517f08c379a00000000000000000000000000000000000000000000000000000000081526004016104d090610b8c565b60405180910390fd5b6000808381526020019081526020016000206040518060c00160405290816000820154815260200160018201805461051090610d40565b80601f016020809104026020016040519081016040528092919081815260200182805461053c90610d40565b80156105895780601f1061055e57610100808354040283529160200191610589565b820191906000526020600020905b81548152906001019060200180831161056c57829003601f168201915b505050505081526020016002820180546105a290610d40565b80601f01602080910402602001604051908101604052809291908181526020018280546105ce90610d40565b801561061b5780601f106105f05761010080835404028352916020019161061b565b820191906000526020600020905b8154815290600101906020018083116105fe57829003601f168201915b5050505050815260200160038201805461063490610d40565b80601f016020809104026020016040519081016040528092919081815260200182805461066090610d40565b80156106ad5780601f10610682576101008083540402835291602001916106ad565b820191906000526020600020905b81548152906001019060200180831161069057829003601f168201915b505050505081526020016004820180546106c690610d40565b80601f01602080910402602001604051908101604052809291908181526020018280546106f290610d40565b801561073f5780601f106107145761010080835404028352916020019161073f565b820191906000526020600020905b81548152906001019060200180831161072257829003601f168201915b505050505081526020016005820154815250509050919050565b82805461076590610d40565b90600052602060002090601f01602090048101928261078757600085556107ce565b82601f106107a057805160ff19168380011785556107ce565b828001600101855582156107ce579182015b828111156107cd5782518255916020019190600101906107b2565b5b5090506107db9190610815565b5090565b6040518060c001604052806000815260200160608152602001606081526020016060815260200160608152602001600081525090565b5b8082111561082e576000816000905550600101610816565b5090565b600061084561084084610c97565b610c66565b90508281526020810184848401111561085d57600080fd5b610868848285610cfe565b509392505050565b600082601f83011261088157600080fd5b8135610891848260208601610832565b91505092915050565b6000813590506108a981610e59565b92915050565b600080600080600060a086880312156108c757600080fd5b600086013567ffffffffffffffff8111156108e157600080fd5b6108ed88828901610870565b955050602086013567ffffffffffffffff81111561090a57600080fd5b61091688828901610870565b945050604086013567ffffffffffffffff81111561093357600080fd5b61093f88828901610870565b935050606086013567ffffffffffffffff81111561095c57600080fd5b61096888828901610870565b92505060806109798882890161089a565b9150509295509295909350565b60006020828403121561099857600080fd5b60006109a68482850161089a565b91505092915050565b60006109ba82610cc7565b6109c48185610cd2565b93506109d4818560208601610d0d565b6109dd81610e48565b840191505092915050565b60006109f382610cc7565b6109fd8185610ce3565b9350610a0d818560208601610d0d565b610a1681610e48565b840191505092915050565b6000610a2e601583610ce3565b91507f496e76616c69642070726564696374696f6e20494400000000000000000000006000830152602082019050919050565b600060c083016000830151610a796000860182610aff565b5060208301518482036020860152610a9182826109af565b91505060408301518482036040860152610aab82826109af565b91505060608301518482036060860152610ac582826109af565b91505060808301518482036080860152610adf82826109af565b91505060a0830151610af460a0860182610aff565b508091505092915050565b610b0881610cf4565b82525050565b610b1781610cf4565b82525050565b600060a0820190508181036000830152610b3781886109e8565b90508181036020830152610b4b81876109e8565b90508181036040830152610b5f81866109e8565b90508181036060830152610b7381856109e8565b9050610b826080830184610b0e565b9695505050505050565b60006020820190508181036000830152610ba581610a21565b9050919050565b60006020820190508181036000830152610bc68184610a61565b905092915050565b6000602082019050610be36000830184610b0e565b92915050565b600060c082019050610bfe6000830189610b0e565b8181036020830152610c1081886109e8565b90508181036040830152610c2481876109e8565b90508181036060830152610c3881866109e8565b90508181036080830152610c4c81856109e8565b9050610c5b60a0830184610b0e565b979650505050505050565b6000604051905081810181811067ffffffffffffffff82111715610c8d57610c8c610e19565b5b8060405250919050565b600067ffffffffffffffff821115610cb257610cb1610e19565b5b601f19601f8301169050602081019050919050565b600081519050919050565b600082825260208201905092915050565b600082825260208201905092915050565b6000819050919050565b82818337600083830152505050565b60005b83811015610d2b578082015181840152602081019050610d10565b83811115610d3a576000848401525b50505050565b60006002820490506001821680610d5857607f821691505b60208210811415610d6c57610d6b610dea565b5b50919050565b6000610d7d82610cf4565b91507fffffffffffffffffffffffffffffffffffffffffffffffffffffffffffffffff821415610db057610daf610dbb565b5b600182019050919050565b7f4e487b7100000000000000000000000000000000000000000000000000000000600052601160045260246000fd5b7f4e487b7100000000000000000000000000000000000000000000000000000000600052602260045260246000fd5b7f4e487b7100000000000000000000000000000000000000000000000000000000600052604160045260246000fd5b6000601f19601f8301169050919050565b610e6281610cf4565b8114610e6d57600080fd5b5056fea264697066735822122084b97115c6ee65b7d5ebf569cda8c2161895b2ca17a09b6994773d91f21cc14464736f6c63430008000033",
  "immutableReferences": {},
  "source": "// SPDX-License-Identifier: MIT\npragma solidity ^0.8.0;\n\ncontract HealthPrediction {\n    struct Prediction {\n        uint256 id;\n        string userId;\n        string disease;\n        string userInputs;\n        string predictionResult;\n        uint256 probability;\n    }\n\n    mapping(uint256 => Prediction) public predictions;\n    uint256 public predictionCount;\n\n    event PredictionStored(\n        uint256 indexed id,\n        string userId,\n        string disease,\n        string userInputs,\n        string predictionResult,\n        uint256 probability\n    );\n\n    function storePrediction(\n        string memory _userId,\n        string memory _disease,\n        string memory _userInputs,\n        string memory _predictionResult,\n        uint256 _probability\n    ) public {\n        predictionCount++;\n        predictions[predictionCount] = Prediction(\n            predictionCount,\n            _userId,\n            _disease,\n            _userInputs,\n            _predictionResult,\n            _probability\n        );\n        emit PredictionStored(\n            predictionCount,\n            _userId,\n            _disease,\n            _userInputs,\n            _predictionResult,\n            _probability\n        );\n    }\n\n    function getPrediction(uint256 _id) public view returns (Prediction memory) {\n        require(_id > 0 && _id <= predictionCount, \"Invalid prediction ID\");\n        return predictions[_id];\n    }\n}\n",
  "sourcePath": "D:\\mastere\\ISG\\MRIDG\\semestre 2\\systeme repartis\\projet2\\blockchain\\contracts\\HealthPrediction.sol",
  "compiler": {
    "name": "solc",
    "version": "0.8.0+commit.c7dfd78e.Emscripten.clang"
  },
  "schemaVersion": "3.4.16",
  "updatedAt": "2025-04-18T20:19:24.723Z",
  "devdoc": {
    "kind": "dev",
    "methods": {},
    "version": 1
  },
  "userdoc": {
    "kind": "user",
    "methods": {},
    "version": 1
  }
}