{
  "contractName": "PaiementTracker",
  "abi": [
    {
      "anonymous": false,
      "inputs": [
        {
          "indexed": true,
          "internalType": "uint256",
          "name": "index",
          "type": "uint256"
        },
        {
          "indexed": false,
          "internalType": "string",
          "name": "patient",
          "type": "string"
        },
        {
          "indexed": false,
          "internalType": "string",
          "name": "docteur",
          "type": "string"
        },
        {
          "indexed": false,
          "internalType": "string",
          "name": "dateEnvoi",
          "type": "string"
        },
        {
          "indexed": false,
          "internalType": "string",
          "name": "statut",
          "type": "string"
        },
        {
          "indexed": false,
          "internalType": "uint256",
          "name": "montant",
          "type": "uint256"
        },
        {
          "indexed": false,
          "internalType": "address",
          "name": "sender",
          "type": "address"
        }
      ],
      "name": "PaiementCreated",
      "type": "event"
    },
    {
      "anonymous": false,
      "inputs": [
        {
          "indexed": true,
          "internalType": "uint256",
          "name": "index",
          "type": "uint256"
        },
        {
          "indexed": false,
          "internalType": "string",
          "name": "newStatut",
          "type": "string"
        }
      ],
      "name": "PaiementUpdated",
      "type": "event"
    },
    {
      "inputs": [
        {
          "internalType": "uint256",
          "name": "",
          "type": "uint256"
        }
      ],
      "name": "paiements",
      "outputs": [
        {
          "internalType": "string",
          "name": "patient",
          "type": "string"
        },
        {
          "internalType": "string",
          "name": "docteur",
          "type": "string"
        },
        {
          "internalType": "string",
          "name": "dateEnvoi",
          "type": "string"
        },
        {
          "internalType": "string",
          "name": "statut",
          "type": "string"
        },
        {
          "internalType": "uint256",
          "name": "montant",
          "type": "uint256"
        },
        {
          "internalType": "address payable",
          "name": "patientAddr",
          "type": "address"
        },
        {
          "internalType": "address payable",
          "name": "docteurAddr",
          "type": "address"
        }
      ],
      "stateMutability": "view",
      "type": "function",
      "constant": true
    },
    {
      "inputs": [
        {
          "internalType": "string",
          "name": "patient",
          "type": "string"
        },
        {
          "internalType": "string",
          "name": "docteur",
          "type": "string"
        },
        {
          "internalType": "address payable",
          "name": "docteurAddr",
          "type": "address"
        },
        {
          "internalType": "string",
          "name": "dateEnvoi",
          "type": "string"
        }
      ],
      "name": "createPaiement",
      "outputs": [],
      "stateMutability": "payable",
      "type": "function",
      "payable": true
    },
    {
      "inputs": [
        {
          "internalType": "uint256",
          "name": "index",
          "type": "uint256"
        },
        {
          "internalType": "string",
          "name": "newStatut",
          "type": "string"
        }
      ],
      "name": "updateStatut",
      "outputs": [],
      "stateMutability": "nonpayable",
      "type": "function"
    },
    {
      "inputs": [],
      "name": "getPaiementsCount",
      "outputs": [
        {
          "internalType": "uint256",
          "name": "",
          "type": "uint256"
        }
      ],
      "stateMutability": "view",
      "type": "function",
      "constant": true
    },
    {
      "inputs": [
        {
          "internalType": "uint256",
          "name": "index",
          "type": "uint256"
        }
      ],
      "name": "getPaiement",
      "outputs": [
        {
          "internalType": "string",
          "name": "patient",
          "type": "string"
        },
        {
          "internalType": "string",
          "name": "docteur",
          "type": "string"
        },
        {
          "internalType": "string",
          "name": "dateEnvoi",
          "type": "string"
        },
        {
          "internalType": "string",
          "name": "statut",
          "type": "string"
        },
        {
          "internalType": "uint256",
          "name": "montant",
          "type": "uint256"
        },
        {
          "internalType": "address",
          "name": "patientAddr",
          "type": "address"
        },
        {
          "internalType": "address",
          "name": "docteurAddr",
          "type": "address"
        }
      ],
      "stateMutability": "view",
      "type": "function",
      "constant": true
    }
  ],
  "bytecode": "0x608060405234801561001057600080fd5b5061171d806100206000396000f3fe60806040526004361061004a5760003560e01c8063073df0d41461004f57806391e5954c146100785780639b23f34f146100bb578063b8c92425146100e6578063c889bc6714610102575b600080fd5b34801561005b57600080fd5b5061007660048036038101906100719190610fc3565b610145565b005b34801561008457600080fd5b5061009f600480360381019061009a9190610f9a565b6103fe565b6040516100b29796959493929190611367565b60405180910390f35b3480156100c757600080fd5b506100d06106b0565b6040516100dd91906114fd565b60405180910390f35b61010060048036038101906100fb9190610ee1565b6106bc565b005b34801561010e57600080fd5b5061012960048036038101906101249190610f9a565b610a45565b60405161013c97969594939291906113f2565b60405180910390f35b6000808481548110610180577f4e487b7100000000000000000000000000000000000000000000000000000000600052603260045260246000fd5b906000526020600020906007020190508060060160009054906101000a900473ffffffffffffffffffffffffffffffffffffffff1673ffffffffffffffffffffffffffffffffffffffff163373ffffffffffffffffffffffffffffffffffffffff1614610222576040517f08c379a00000000000000000000000000000000000000000000000000000000081526004016102199061147d565b60405180910390fd5b6040518060400160405280600781526020017f70656e64696e6700000000000000000000000000000000000000000000000000815250805190602001208160030160405161027091906112ab565b6040518091039020146102b8576040517f08c379a00000000000000000000000000000000000000000000000000000000081526004016102af906114dd565b60405180910390fd5b6040518060400160405280600881526020017f6163636570746564000000000000000000000000000000000000000000000000815250805190602001208383604051610305929190611292565b6040518091039020148061036b57506040518060400160405280600881526020017f72656a6563746564000000000000000000000000000000000000000000000000815250805190602001208383604051610361929190611292565b6040518091039020145b6103aa576040517f08c379a00000000000000000000000000000000000000000000000000000000081526004016103a1906114bd565b60405180910390fd5b82828260030191906103bd929190610d44565b50837fb2b81f356e0dc26e82159f54de009f37432a2f4b22c1fd4d83cd18aa9541880284846040516103f09291906112c2565b60405180910390a250505050565b6000818154811061040e57600080fd5b906000526020600020906007020160009150905080600001805461043190611618565b80601f016020809104026020016040519081016040528092919081815260200182805461045d90611618565b80156104aa5780601f1061047f576101008083540402835291602001916104aa565b820191906000526020600020905b81548152906001019060200180831161048d57829003601f168201915b5050505050908060010180546104bf90611618565b80601f01602080910402602001604051908101604052809291908181526020018280546104eb90611618565b80156105385780601f1061050d57610100808354040283529160200191610538565b820191906000526020600020905b81548152906001019060200180831161051b57829003601f168201915b50505050509080600201805461054d90611618565b80601f016020809104026020016040519081016040528092919081815260200182805461057990611618565b80156105c65780601f1061059b576101008083540402835291602001916105c6565b820191906000526020600020905b8154815290600101906020018083116105a957829003601f168201915b5050505050908060030180546105db90611618565b80601f016020809104026020016040519081016040528092919081815260200182805461060790611618565b80156106545780601f1061062957610100808354040283529160200191610654565b820191906000526020600020905b81548152906001019060200180831161063757829003601f168201915b5050505050908060040154908060050160009054906101000a900473ffffffffffffffffffffffffffffffffffffffff16908060060160009054906101000a900473ffffffffffffffffffffffffffffffffffffffff16905087565b60008080549050905090565b600034116106ff576040517f08c379a00000000000000000000000000000000000000000000000000000000081526004016106f69061149d565b60405180910390fd5b60006040518060e0016040528089898080601f016020809104026020016040519081016040528093929190818152602001838380828437600081840152601f19601f82011690508083019250505050505050815260200187878080601f016020809104026020016040519081016040528093929190818152602001838380828437600081840152601f19601f82011690508083019250505050505050815260200184848080601f016020809104026020016040519081016040528093929190818152602001838380828437600081840152601f19601f8201169050808301925050505050505081526020016040518060400160405280600781526020017f70656e64696e670000000000000000000000000000000000000000000000000081525081526020013481526020013373ffffffffffffffffffffffffffffffffffffffff1681526020018573ffffffffffffffffffffffffffffffffffffffff16815250908060018154018082558091505060019003906000526020600020906007020160009091909190915060008201518160000190805190602001906108a6929190610dca565b5060208201518160010190805190602001906108c3929190610dca565b5060408201518160020190805190602001906108e0929190610dca565b5060608201518160030190805190602001906108fd929190610dca565b506080820151816004015560a08201518160050160006101000a81548173ffffffffffffffffffffffffffffffffffffffff021916908373ffffffffffffffffffffffffffffffffffffffff16021790555060c08201518160060160006101000a81548173ffffffffffffffffffffffffffffffffffffffff021916908373ffffffffffffffffffffffffffffffffffffffff1602179055505050600060016000805490506109ac9190611554565b9050807f9545588f048767f0779b77fa099f58c06553b8efe2cab58e54b447930fd5626a89898989888834336040516109ec9897969594939291906112e6565b60405180910390a28373ffffffffffffffffffffffffffffffffffffffff166108fc349081150290604051600060405180830381858888f19350505050158015610a3a573d6000803e3d6000fd5b505050505050505050565b60608060608060008060008060008981548110610a8b577f4e487b7100000000000000000000000000000000000000000000000000000000600052603260045260246000fd5b906000526020600020906007020190508060000181600101826002018360030184600401548560050160009054906101000a900473ffffffffffffffffffffffffffffffffffffffff168660060160009054906101000a900473ffffffffffffffffffffffffffffffffffffffff16868054610b0690611618565b80601f0160208091040260200160405190810160405280929190818152602001828054610b3290611618565b8015610b7f5780601f10610b5457610100808354040283529160200191610b7f565b820191906000526020600020905b815481529060010190602001808311610b6257829003601f168201915b50505050509650858054610b9290611618565b80601f0160208091040260200160405190810160405280929190818152602001828054610bbe90611618565b8015610c0b5780601f10610be057610100808354040283529160200191610c0b565b820191906000526020600020905b815481529060010190602001808311610bee57829003601f168201915b50505050509550848054610c1e90611618565b80601f0160208091040260200160405190810160405280929190818152602001828054610c4a90611618565b8015610c975780601f10610c6c57610100808354040283529160200191610c97565b820191906000526020600020905b815481529060010190602001808311610c7a57829003601f168201915b50505050509450838054610caa90611618565b80601f0160208091040260200160405190810160405280929190818152602001828054610cd690611618565b8015610d235780601f10610cf857610100808354040283529160200191610d23565b820191906000526020600020905b815481529060010190602001808311610d0657829003601f168201915b50505050509350975097509750975097509750975050919395979092949650565b828054610d5090611618565b90600052602060002090601f016020900481019282610d725760008555610db9565b82601f10610d8b57803560ff1916838001178555610db9565b82800160010185558215610db9579182015b82811115610db8578235825591602001919060010190610d9d565b5b509050610dc69190610e50565b5090565b828054610dd690611618565b90600052602060002090601f016020900481019282610df85760008555610e3f565b82601f10610e1157805160ff1916838001178555610e3f565b82800160010185558215610e3f579182015b82811115610e3e578251825591602001919060010190610e23565b5b509050610e4c9190610e50565b5090565b5b80821115610e69576000816000905550600101610e51565b5090565b600081359050610e7c816116b9565b92915050565b60008083601f840112610e9457600080fd5b8235905067ffffffffffffffff811115610ead57600080fd5b602083019150836001820283011115610ec557600080fd5b9250929050565b600081359050610edb816116d0565b92915050565b60008060008060008060006080888a031215610efc57600080fd5b600088013567ffffffffffffffff811115610f1657600080fd5b610f228a828b01610e82565b9750975050602088013567ffffffffffffffff811115610f4157600080fd5b610f4d8a828b01610e82565b95509550506040610f608a828b01610e6d565b935050606088013567ffffffffffffffff811115610f7d57600080fd5b610f898a828b01610e82565b925092505092959891949750929550565b600060208284031215610fac57600080fd5b6000610fba84828501610ecc565b91505092915050565b600080600060408486031215610fd857600080fd5b6000610fe686828701610ecc565b935050602084013567ffffffffffffffff81111561100357600080fd5b61100f86828701610e82565b92509250509250925092565b6110248161159a565b82525050565b61103381611588565b82525050565b60006110458385611538565b93506110528385846115d6565b82840190509392505050565b6000815461106b81611618565b6110758186611538565b9450600182166000811461109057600181146110a1576110d4565b60ff198316865281860193506110d4565b6110aa85611518565b60005b838110156110cc578154818901526001820191506020810190506110ad565b838801955050505b50505092915050565b60006110e98385611543565b93506110f68385846115d6565b6110ff836116a8565b840190509392505050565b60006111158261152d565b61111f8185611543565b935061112f8185602086016115e5565b611138816116a8565b840191505092915050565b6000611150601283611543565b91507f61647265737365206c6520646f637465757200000000000000000000000000006000830152602082019050919050565b6000611190601183611543565b91507f736f6c646520696e737566666973616e740000000000000000000000000000006000830152602082019050919050565b60006111d0600f83611543565b91507f53746174757420696e76616c69646500000000000000000000000000000000006000830152602082019050919050565b6000611210600783611543565b91507f70656e64696e67000000000000000000000000000000000000000000000000006000830152602082019050919050565b6000611250601683611543565b91507f5374617475742064c3a96ac3a0206d6f64696669c3a9000000000000000000006000830152602082019050919050565b61128c816115cc565b82525050565b600061129f828486611039565b91508190509392505050565b60006112b7828461105e565b915081905092915050565b600060208201905081810360008301526112dd8184866110dd565b90509392505050565b600060c0820190508181036000830152611301818a8c6110dd565b9050818103602083015261131681888a6110dd565b9050818103604083015261132b8186886110dd565b9050818103606083015261133e81611203565b905061134d6080830185611283565b61135a60a083018461102a565b9998505050505050505050565b600060e0820190508181036000830152611381818a61110a565b90508181036020830152611395818961110a565b905081810360408301526113a9818861110a565b905081810360608301526113bd818761110a565b90506113cc6080830186611283565b6113d960a083018561101b565b6113e660c083018461101b565b98975050505050505050565b600060e082019050818103600083015261140c818a61110a565b90508181036020830152611420818961110a565b90508181036040830152611434818861110a565b90508181036060830152611448818761110a565b90506114576080830186611283565b61146460a083018561102a565b61147160c083018461102a565b98975050505050505050565b6000602082019050818103600083015261149681611143565b9050919050565b600060208201905081810360008301526114b681611183565b9050919050565b600060208201905081810360008301526114d6816111c3565b9050919050565b600060208201905081810360008301526114f681611243565b9050919050565b60006020820190506115126000830184611283565b92915050565b60008190508160005260206000209050919050565b600081519050919050565b600081905092915050565b600082825260208201905092915050565b600061155f826115cc565b915061156a836115cc565b92508282101561157d5761157c61164a565b5b828203905092915050565b6000611593826115ac565b9050919050565b60006115a5826115ac565b9050919050565b600073ffffffffffffffffffffffffffffffffffffffff82169050919050565b6000819050919050565b82818337600083830152505050565b60005b838110156116035780820151818401526020810190506115e8565b83811115611612576000848401525b50505050565b6000600282049050600182168061163057607f821691505b6020821081141561164457611643611679565b5b50919050565b7f4e487b7100000000000000000000000000000000000000000000000000000000600052601160045260246000fd5b7f4e487b7100000000000000000000000000000000000000000000000000000000600052602260045260246000fd5b6000601f19601f8301169050919050565b6116c28161159a565b81146116cd57600080fd5b50565b6116d9816115cc565b81146116e457600080fd5b5056fea264697066735822122044ff1631690790ec1253c7c7d9cceb113813135bf3c5163b762ea332364a884864736f6c63430008000033",
  "immutableReferences": {},
  "source": "// SPDX-License-Identifier: MIT\r\npragma solidity ^0.8.0;\r\n\r\ncontract PaiementTracker {\r\n    struct Paiement {\r\n        string patient;\r\n        string docteur;\r\n        string dateEnvoi;\r\n        string statut;           // \"pending\", \"accepted\", \"rejected\"\r\n        uint256 montant;\r\n        address payable patientAddr;\r\n        address payable docteurAddr;\r\n    }\r\n\r\n    Paiement[] public paiements;\r\n\r\n    event PaiementCreated(\r\n        uint indexed index,\r\n        string patient,\r\n        string docteur,\r\n        string dateEnvoi,\r\n        string statut,\r\n        uint256 montant,\r\n        address sender\r\n    );\r\n    event PaiementUpdated(uint indexed index, string newStatut);\r\n\r\n    /// @notice Le patient cre un paiement et les fonds sont immdiatement transfrs au docteur\r\n    function createPaiement(\r\n        string calldata patient,\r\n        string calldata docteur,\r\n        address payable docteurAddr,\r\n        string calldata dateEnvoi\r\n    ) external payable {\r\n        require(msg.value > 0, \"solde insuffisant\");\r\n\r\n        // Enregistrer le paiement (statut initial \"pending\")\r\n        paiements.push(Paiement({\r\n            patient: patient,\r\n            docteur: docteur,\r\n            dateEnvoi: dateEnvoi,\r\n            statut: \"pending\",\r\n            montant: msg.value,\r\n            patientAddr: payable(msg.sender),\r\n            docteurAddr: docteurAddr\r\n        }));\r\n        uint idx = paiements.length - 1;\r\n        emit PaiementCreated(idx, patient, docteur, dateEnvoi, \"pending\", msg.value, msg.sender);\r\n\r\n        // Transfert immdiat au docteur\r\n        docteurAddr.transfer(msg.value);\r\n    }\r\n\r\n    /// @notice Le docteur peut juste mettre  jour le statut (sans toucher aux fonds)\r\n    function updateStatut(uint256 index, string calldata newStatut) external {\r\n        Paiement storage p = paiements[index];\r\n        require(msg.sender == p.docteurAddr, \"adresse le docteur\");\r\n        \r\n  require(keccak256(bytes(p.statut)) == keccak256(bytes(\"pending\")), unicode\"Statut dj modifi\");\r\n        require(\r\n            keccak256(bytes(newStatut)) == keccak256(bytes(\"accepted\")) ||\r\n            keccak256(bytes(newStatut)) == keccak256(bytes(\"rejected\")),\r\n            \"Statut invalide\"\r\n        );\r\n\r\n        p.statut = newStatut;\r\n        emit PaiementUpdated(index, newStatut);\r\n    }\r\n\r\n    function getPaiementsCount() external view returns (uint256) {\r\n        return paiements.length;\r\n    }\r\n\r\n    function getPaiement(uint256 index)\r\n        external\r\n        view\r\n        returns (\r\n            string memory patient,\r\n            string memory docteur,\r\n            string memory dateEnvoi,\r\n            string memory statut,\r\n            uint256 montant,\r\n            address patientAddr,\r\n            address docteurAddr\r\n        )\r\n    {\r\n        Paiement storage p = paiements[index];\r\n        return (\r\n            p.patient,\r\n            p.docteur,\r\n            p.dateEnvoi,\r\n            p.statut,\r\n            p.montant,\r\n            p.patientAddr,\r\n            p.docteurAddr\r\n        );\r\n    }\r\n}\r\n",
  "sourcePath": "D:\\mastere\\ISG\\MRIDG\\semestre 2\\systeme repartis\\projet2\\blockchain\\contracts\\paiement.sol",
  "compiler": {
    "name": "solc",
    "version": "0.8.0+commit.c7dfd78e.Emscripten.clang"
  },
  "schemaVersion": "3.4.16",
  "updatedAt": "2025-04-18T20:19:40.024Z",
  "networkType": "ethereum",
  "devdoc": {
    "kind": "dev",
    "methods": {},
    "version": 1
  },
  "userdoc": {
    "kind": "user",
    "methods": {
      "createPaiement(string,string,address,string)": {
        "notice": "Le patient cre un paiement et les fonds sont immdiatement transfrs au docteur"
      },
      "updateStatut(uint256,string)": {
        "notice": "Le docteur peut juste mettre  jour le statut (sans toucher aux fonds)"
      }
    },
    "version": 1
  }
}